:020000041000EA
:1040000000000220BD5C0010D9430010D542001012
:10401000FD5C0010FF5C0010015D0010000000005E
:10402000000000000000000000000000818C001073
:104030000000000000000000E18C0010458D001021
:10404000095D00100B5D00100D5D00100F5D00108C
:10405000115D0010ED58001029590010175D001077
:10406000195D00101B5D00101D5D00101F5D00102C
:10407000215D00104D590010255D0010275D0010D6
:10408000295D00102B5D00102D5D00102F5D0010CC
:10409000315D0010335D0010355D0010375D00109C
:1040A0007D450010834500103D5D00103F5D001010
:1040B0003D58001055580010595800105D58001018
:1040C000495D00104B5D00104D5D00104F5D00100C
:1040D00059590010535D0010555D0010E992001011
:1040E0005993001039940010A9930010E99300101F
:1040F0006D940010E194001015950010419500108A
:10410000A1940010439500104595001047950010AC
:1041100049950010E9420010755D0010775D0010B0
:10412000795D00107B5D00107D5D00107F5D0010EB
:10413000815D0010835D001065590010875D0010DF
:10414000895D00108B5D00108D5D00108F5D00108B
:104150006158001065580010695800106D58001023
:10416000995D00109B5D00109D5D00109F5D00102B
:10417000A15D0010A35D0010A55D0010A75D0010FB
:10418000A95D0010AB5D0010AD5D0010AF5D0010CB
:10419000B15D0010B35D0010B55D0010B75D00109B
:1041A000B95D0010BB5D0010BD5D0010BF5D00106B
:1041B000C15D0010C35D0010C55D00100348044BD5
:1041C000834202D0034B03B118477047580A0020BE
:1041D000580A002000000000054806490B1AD90FB4
:1041E00001EBA301491002D0034B03B118477047FC
:1041F000580A0020580A00200000000010B5064CA4
:10420000237843B9FFF7DAFF044B13B10448AFF347
:1042100000800123237010BD580A00200000000018
:104220001C0E011008B5044B1BB104490448AFF340
:104230000080BDE80840CFE7000000005C0A0020D5
:104240001C0E011080B483B000AF7860FEE7000060
:1042500007B504F09FF9054C0190204605F080FB5E
:104260004FF47A7101A804F093FAF6E72C050110D7
:1042700008B5012000F028F902F03CFBBDE8084039
:10428000012000F003B900001FB500230D4A03937D
:10429000039B934211DD00F029F800230122CDE9B0
:1042A000002309490948802204F058F804F036F93F
:1042B000074805F055FB00BFFDE7039B013303935F
:1042C000E6E700BFFEFF3F004A0501105142001023
:1042D000500501101EF0040F0CBFEFF30880EFF340
:1042E0000980FFF7AFBF704703F062BC38B5214DBE
:1042F000214C284604F0C6FF204600F045FA092369
:104300002B2204F10C010220237101F066F9042232
:1043100004F13001012001F060F914232B80002307
:1043200084F8203000F0FFFE4FF4006100F040FE02
:1043300000F0F4FE1149E38B40F20D120A811433B0
:10434000627B8A728B81227FE37E13448B7304200D
:1043500000F0D2FC80B200F0E1FE01F001F801F0C3
:1043600071F8074801F0E4F8012001F0D1F800F0FD
:10437000BBF9FEE7740A0020800A0020000000203C
:104380000950001008B50346014805F0A1FAFEE700
:1043900082050110034B012218684FF4E13103F04C
:1043A000ADB800BF1000002008B5FFF7F3FF0028EC
:1043B0000CDB00F0C7F820B1542205490548FFF78F
:1043C000E1FF00F09FF808B15922F6E708BD00BFF1
:1043D0009B050110CB05011000BF70474FF0FF3067
:1043E00070474FF0FF3070474FF0FF3070474FF08D
:1043F000FF3070472DE9F04116460446C0B9104F12
:104400000D46B442A84610DA384603F0FDF8C1B2B2
:104410002970384603F0FAF815F8013B0D2B04F12A
:104420000104EED10A2388F800302046BDE8F0816F
:1044300005F0A8F8092303604FF0FF34F5E700BF4B
:10444000003004400138012838B518D905F09AF831
:10445000092303604FF0FF320FE01C780A2C03D1D0
:1044600084682406FCD4C56184682406FCD413F84F
:10447000014BC4615C1A9442EFDB104638BD024820
:104480000B460D25F6E700BF003004400A4B1B68C1
:10449000834210B5044604D8084909483C22FFF776
:1044A00071FF084A0C2303FB04F01318BDE8104009
:1044B0005968105802F0EABAF40501100806011014
:1044C00039060110D00501100A4B1B68834210B554
:1044D000044604D8084909484722FFF753FF084A11
:1044E0000C2303FB04F01318BDE810405968105862
:1044F00002F0CABAF40501100806011039060110CD
:10450000D0050110F7B50D4B0D4E1B68019300242B
:1045100025460C27019BA34202D8284603B0F0BDD4
:104520002046FFF7D1FF07FB046002F05DFA002888
:1045300018BF6FF007050134ECE700BFF405011068
:10454000D0050110F7B50B4B0B4E1B6801930024EF
:1045500025460C27019BA34202D8284603B0F0BD94
:1045600007FB046002F040FA002818BF6FF007054F
:104570000134EFE7F8050110FC050110002002F0FE
:1045800087BA012002F084BA012873B504460E46AA
:1045900023D9032823D1886804F0ECFF054670680E
:1045A00004F0E8FFC0B2431E022B06D90D48214695
:1045B00000F080FB012002B070BD0B4BB5FBF3F2A5
:1045C00003FB1253ADF8043001AA1B0C21468DF8F1
:1045D000063000F0AFF80020EDE70220EBE7032003
:1045E000E9E700BF4806011040420F00022870B5FD
:1045F0000E465AD903285AD14D682F49284605F04E
:10460000C3F9C0B12D49284605F0BEF9002850D1A4
:104610000224B6682A49304605F0B6F968B9294837
:10462000294600F047FB012C18BF0624204600F065
:1046300079F8002070BD0124EBE72349304605F0EE
:10464000A3F940B92148294600F034FB012C0CBFE6
:1046500002240724EAE71E49304605F095F940B9DF
:104660001C48294600F026FB012C0CBF032408241B
:10467000DCE71949304605F087F940B91748294663
:1046800000F018FB012C0CBF04240924CEE71449C8
:10469000304605F079F960B91248294600F00AFB66
:1046A000012C0CBF05240A24C0E70220C2E7032026
:1046B000C0E70120BEE700BF6F06011071060110C0
:1046C00073060110C606011046060110750601109A
:1046D0008D0601108F060110A8060110AA06011010
:1046E000C1060110C306011008B5094800F086FC98
:1046F000084800F063F9084800F01CFE00F074F967
:10470000064800F061F9BDE80840054800F05CB9D2
:10471000314C001009500010E14A00101400002034
:1047200024000020024B1B6803B11847704700BFEC
:10473000B40A00201029F8B507460D46164604D9DC
:104740000C484FF4977100F0CBFA162000F0F8FCFB
:10475000044670B1042383700780057526B12A468C
:104760003146184404F052FF2046BDE8F84000F0FE
:1047700003B8F8BD0B070110024B014693F8EC009B
:1047800000F0FEBC6411012010B534220446002163
:1047900005F03EF840F2B743238008232371042339
:1047A00040216373A375E37623771B23FB222174D7
:1047B000E383022142F21073E281A1822283E38526
:1047C00010BD0000F8B5079D04469DF8180032B9E9
:1047D0001E496F1E20460346C519302629E018B32E
:1047E0000A2B21D1002A1FDA20462D2600F8016B62
:1047F00052426F1E4E1E4FF0000C00F806C0EDB284
:1048000081190DB1002FE6DDB2FBF3FC03FB1C2682
:10481000092E88BF07363036934201F8016D07F143
:10482000FF37D8D86246ECE72F462046E2E703F888
:10483000016BEA1A002AFADC002FA8BFC01905F0A4
:104840000DFA2046BDE8F84005F07ABA410701109C
:104850002DE9F74F0026044689461D46067001F1F2
:10486000FF38B2464FF00A0B13780BB1464509D317
:10487000464588BF09F1010600233046237003B086
:10488000BDE8F08F252B02F1010704D004F8013BAD
:1048900001363A46E8E75378252B04D104F8013B6A
:1048A0000136971CF5E7302B3BD1002238461146E4
:1048B00010F801CBACF13003DBB2092B2AD92CF074
:1048C000200EAEF1410EACF16103BEF1050FDBB27B
:1048D00006D8052B16D8ACF15703DBB2092B19D932
:1048E0000F443B786C2B08BF01373B78782B07D8F7
:1048F0006F2B18D8632B2FD0642B42D0582B4AD063
:104900000137C6E7ACF14103052B02D8ACF1370300
:10491000E3E700230BFB023203780131002BC7D100
:10492000DEE70022DDE7703B082BE9D801A151F852
:1049300023F000BF8B49001001490010014900100D
:104940009D490010014900106549001001490010FF
:10495000014900109749001055F8043B04F8013B49
:104960000136CDE7CDE900A20A23A8EB06012046D7
:1049700055F8042BFFF726FF54FA80F456FA80F618
:10498000BEE7012301920093EEE701230821CDE960
:1049900000311023E9E7CDE900A2FAE755F8043B1E
:1049A000013B5A1CACD013F8012F002AA8D0464571
:1049B000A6D204F8012B0136F3E700BF014B58677C
:1049C000704700BFC00A0020064A53681BB95060F8
:1049D0000023036070471A461B68002BFBD1106050
:1049E000F6E700BFC00A002010B504460A4800F0F0
:1049F00053FD0A4B0A481C70002201215A6083F8BB
:104A00006D2083F86E101A67FFF7DEFFBDE81040D7
:104A10000448FFF7D9BF00BF44070110C00A0020B7
:104A20004400002034000020024B5B6F03B11847A4
:104A3000704700BFC00A002010B5044605F080F999
:104A400081B22046BDE81040FFF7EEBF012838B51F
:104A50001CD902281CD14D680F49284604F094FF48
:104A6000044640B90D4B0E48012283F86E20FFF733
:104A7000E3FF204638BD0B49284604F085FF044675
:104A800040B9064B83F86E000748F0E70220F1E7D3
:104A90000320EFE70120EDE753070110C00A0020D3
:104AA000560701106007011064070110012838B58E
:104AB00010D8094B094D5C6824B90848FFF7BCFFC2
:104AC000204638BDA068FFF7B7FF2846FFF7B4FFC0
:104AD0002468F1E70320F4E7C00A00201808011059
:104AE000F0B5C3078BB018D5424805F029F9414B02
:104AF0000022A3F10807144618443E46114683429B
:104B00000DD3082C46D93C48FFF796FF3B48FFF7EA
:104B100093FF0023336786F86D300BB0F0BD032A96
:104B200018D8DFE802F0021924311D78222D29D08F
:104B3000A5F1090CBCF1040F0CD9202D0AD0072CCB
:104B40009CBF0AAA02EB840204F1010498BF42F858
:104B5000243C02220133D2E71A78072C98BF029333
:104B6000222A04F1010413D119700022F2E71D7802
:104B7000A5F1090CBCF1040FF6D9202DF4D0222D9B
:104B8000E8D119700122E5E71D78222DE2D1EBE78B
:104B90000322DFE7002CB9D07D68019F3DB918489A
:104BA000FFF74AFF0198FFF747FF1648ACE7686830
:104BB000394604F0E9FE48B12D68EFE71248A3E753
:104BC0001248A1E712489FE712489DE7EB6801A948
:104BD000204698470428F7D801A353F820F000BFD7
:104BE0000D4B0010BD4B0010C14B0010C54B001009
:104BF0000D4B0010C80A00206F070110F6070110C6
:104C0000F9070110170801108B070110A807011000
:104C1000C3070110DF07011007B501218DF8070058
:104C20000DF10700FFF700FF03B05DF804FB000083
:104C300010B51D4991F86D300C468BB90A2801D08A
:104C40000D280ED11948FFF7F7FE236F2078234473
:104C5000002201211A7200F02BFB012384F86D3031
:104C600010BD7F280B6F01D008280CD1002BF7D086
:104C7000013B236794F86E30002BF1D0BDE8104063
:104C80000B48FFF7D9BE632BEAD81F28E8D9CC1808
:104C900001330B6791F86E302072002BE0D0BDE835
:104CA0001040FFF7B9BF00BFC00A0020180801106C
:104CB0001B0801100FB400B5C3B044AB4FF48071B2
:104CC00053F8042B019302A8FFF7C2FD81B202A89A
:104CD000FFF7AAFE43B05DF804EB04B07047000094
:104CE00008B50A460146034800F0D6FBBDE8084077
:104CF00000F0E8BD370801102DE9F74F05460E46D4
:104D000000F011FA364F374B386000EB05141D7078
:104D1000043600F1100B4FF00009D7F8008000F0C6
:104D200005FA20F007008044444507D9AD212E48FC
:104D3000FFF7D6FF002003B0BDE8F08F002D4AD06A
:104D400036F8042C072A26D84FF008032BF8103C1D
:104D50003BF8108C16F8022C0BF80E2C4BE9034490
:104D60004FEAD8080BF8049C0BF8039C2BF8029C24
:104D70004FEAC808012AD7F800A014D800F0D6F9E5
:104D800020F007008244544506F104060BF1100B95
:104D90001BD9DC21CBE753071CBF22F007020832E6
:104DA0002BF8102CD4E7019200F0C0F920F0070096
:104DB00082445445019A01D9D221B8E704EB080195
:104DC000013A2160D2B20C46D4E7013DC4F800900C
:104DD000EDB24444A1E73868044B201A1860AAE7F2
:104DE000380B0020601201205308011064120120CA
:104DF000F8B5064618B91948FE21FFF771FF184BA0
:104E00001C68184B1F7804EB0717BC4206D11348E7
:104E100040F24911FFF764FF002519E02388B342EF
:104E20001AD300F041F9A568A5B12B68A36000234F
:104E30006B60237B627BE0890133DBB29A4238BF2F
:104E40006373864238BF06462373E68100F044F957
:104E50002846F8BD00F040F91034D6E75308011099
:104E6000380B00206012012070B5214C23685B686C
:104E70008342054604D91F4840F25F11FFF730FF17
:104E80001D4A2368126813449D4204D319484FF405
:104E9000B071FFF725FF194A2368147804F1805494
:104EA000013C03EB0414A34206D9BDE8704011484D
:104EB0004FF4C271FFF714BF6268AA4215D800F020
:104EC000F3F80F4E6A68B24204D10A484FF4B67143
:104ED000FFF706FF6E60237B013B2373A3682B6003
:104EE000A560BDE8704000F0F7B8103CDBE700BFFC
:104EF000380B0020530801106412012060120120B9
:104F00000DD0ABFA044AD088138998423CBF9288EE
:104F10008018C01A80B270473C0B0020064A08B5C2
:104F2000D3680BB1107C9847BDE8084003490122C3
:104F3000022000F0D9BD00BF3C0B00204C0B00202C
:104F400038B50D4C238921680546A0885A1982423C
:104F5000C4BFC01A85B2FF2D194405D82A460220C5
:104F600000F034FE658138BDFF22022000F02EFEE5
:104F7000FF236381F7E700BF3C0B002008B500F07A
:104F800093F80A490A894B89888813448342A8BF49
:104F90001B1A9BB20B8100234B81FFF7B3FF08B1B3
:104FA000FFF7CEFFBDE8084000F096B83C0B0020AC
:104FB0001FB50F4C237DCBB98DF80C300D4B206005
:104FC0004FF4E132A180009369460B4B019302201C
:104FD000029200F0FDFC0220012204F1100100F019
:104FE00083FD0123A088237504B010BD0020FBE7DA
:104FF0003C0B00201D4F00107D4F001008B1014BED
:10500000D86070473C0B00202DE9F047254C0D4639
:10501000814600F049F8FFF775FFB4F804A0ABB281
:10502000AAEB0000984239DB6389534536D2E68803
:105030002068AAEB06081FFA88F8A845AFB23044EA
:1050400024D242464946A6EB0A0604F0DFFA3E4463
:105050002068A5EB080209EB080104F0D7FAE68006
:10506000A388E2889A4208BF00234FF0020008BFDD
:10507000E38000F025FD0128044611D13846FFF7F2
:105080005FFF00F029F82046BDE8F0872A46494630
:1050900004F0BCFAE3883B44E380E1E70024F0E756
:1050A0000124EEE73C0B0020EFF3058383B9BFF347
:1050B0005B8F084BD3E84F2F511CC3E8401F0028DB
:1050C000F8D1BFF35B8F12F0FF0F01D103F0EABDFF
:1050D000704700BF540B002010B5EFF30583BBB938
:1050E0000C4C2378BFF35B8F1BB90B484321FFF7B0
:1050F000F7FDBFF35B8FD4E84F3F013BC4E8423F6D
:10510000002AF8D123781BB9BDE8104003F0DABDBE
:1051100010BD00BF540B00208D080110033020F09B
:10512000030000F065BE002000F062BE08B500205C
:1051300000F05EFE014B181A08BD00BF00F0012010
:10514000083008B580B2FFF753FE00B1083008BD43
:105150000838FFF789BE000070B505460E461446B4
:105160001AB906487D21FFF7BBFD04F8046CA4F1D1
:1051700008012846BDE8704000F030B9C6080110AB
:1051800013B50446019100F0D1F82146019AFFF7CA
:10519000E3FF0121204602B0BDE8104000F0AEB8A8
:1051A00010B50C4600F038F910B1037923700830BF
:1051B00010BD0000F7B5184F7F4200264FF0FF33B7
:1051C00001AA19463046019603F018FC0028F4D0D5
:1051D000019B5B07F1D5104C1025B4F840309BB112
:1051E00057F8143083B1BFF35B8F04F14003D3E869
:1051F0005F0FC3E8526F002AF9D1BFF35B8F57F8F6
:105200001430002180B29847013D15F0FF0504F1EC
:105210000204E2D1D1E700BF68120120F7B5224DA8
:10522000A5F160064FF0FF33002001AA1946019056
:1052300003F0E4FB0028F5D0019BDA0707D51B4FEC
:105240000DF103012846FFF7ABFF0446C0B9019BEF
:105250009B07E7D5154F002000F000F90446002811
:10526000E0D0237B0F2B04D940F20D113846FFF715
:1052700037FD237B211D56F8233000209847EAE7AD
:105280009DF803300F2B04D94FF482713846FFF795
:1052900027FD9DF80330214656F82330002098471B
:1052A0002046FFF755FFCBE7C81201200009011087
:1052B00013B5114CBFF35B8F00F00F00203004EBEF
:1052C0004000D0E85F3F0B43C0E8523F002AF8D1CE
:1052D000EFF305833BB9E06E0122042102B0BDE883
:1052E000104003F0D1BB0023E06E009301220421A3
:1052F00003F01EFC02B010BD6812012007B5EFF3E9
:105300000583094833B9806E012203B05DF804EBD0
:1053100003F0BABB002300930122806E03F008FC67
:1053200003B05DF804FB00BF68120120004870471D
:10533000C812012070B5084C94F870506A1C0F2DEB
:10534000064684F8702003D90448C621FFF7C8FC3C
:1053500044F82560284670BD68120120000901103C
:1053600013B5174C84220021204604F051FA04F1B1
:1053700068030193032300931249134800234FF459
:10538000805202F0EBFFA36E1BB91048DD21FFF73E
:10539000A7FC0F4B0193022300930E490E480023F4
:1053A0004FF4FE5202F0DAFFE36E33B90748E4210E
:1053B00002B0BDE81040FFF793BC02B010BD00BFC3
:1053C00068120120390901101D5200100009011056
:1053D000D412012041090110B551001038B50D4615
:1053E000044618B90B483B21FFF77AFC1DB9094860
:1053F0003C21FFF775FC00232B60FFF755FE236867
:105400002BB925606560BDE83840FFF765BE63686D
:105410001D60F7E74909011038B5044618B9084876
:105420006221FFF75DFCFFF73FFE25681DB12B6889
:10543000236003B96360FFF74FFE284638BD00BF05
:105440004909011008B500220421082002F0AEFD30
:10545000014B186008BD00BF580B002007B5054B75
:105460000022186801A902F071FE00B1019803B092
:105470005DF804FB580B00200EB403B503AB80218C
:1054800053F8042B0193FFF7E3F9C0B202B05DF8C3
:1054900004EB03B0704700000FB437B5194C237A02
:1054A00025468BB123687BB1626807AB019392B14B
:1054B00015491648FFF7E0FF23680146134898474F
:1054C00038B963680133636003B0BDE8304004B0AD
:1054D0007047002363600D4C019B069A7E21204695
:1054E000FFF7B6F90D23235423180A2202305A700D
:1054F000C1B22B68204698470028E5D101236B6094
:10550000E2E700BFEC120120540000205C0B0020F9
:1055100038B5054C226805461AB90448E821FFF75A
:10552000DFFB257238BD00BFEC1201208509011098
:10553000014B1860704700BFEC12012041F20603D6
:1055400040F27261038004234180837281814FF4B1
:10555000007341F204014382C18103830821FB23CC
:105560000022017443834FF4016140F20263C28060
:10557000C1828383C2830384704710B588B0044618
:1055800004A9684600F0A6FD08B100F09BF90023CD
:105590006371182323718023E3709DF81230A37088
:1055A0009DF8113063709DF81030237008B010BD65
:1055B00010B588B0044604A9684600F08BFD08B118
:1055C00000F080F9621E04AB073413F8011B02F8E7
:1055D000011FA242F9D108B010BD032813D8DFE89B
:1055E00000F002050C0F0846FFF7C7BF01230B7040
:1055F0004B7000238B70CB7070470846FFF79EBF3F
:105600000846FFF7D5BF704770B58CB0144604AAA2
:10561000054601F11003164613F8010D02F8010BBF
:105620008B42F9D10121002001F01EFE08AB02934C
:1056300000211023CDE900132A460123304601F052
:105640002FFE631E0DF12F020F3412F8011903F81B
:10565000011FA342F9D10CB070BD000010B52B4B57
:105660002B4C2C4A236003F1EB5303F5A51303F5F0
:105670008A536360284B8CB0C4E9022301F0D7FE43
:105680000E2001F0B0FD1021684601F0E7FE102168
:105690000DEB010001F0E2FE009A204B5340009315
:1056A000019A1F4B53400193029A1E4B53400293A1
:1056B000039A1D4B53400393049A1C4B534004938D
:1056C000059A1B4B53400593069A1A4B5340069379
:1056D000079A194B5340079301F0B1FE08AA04A999
:1056E0006846FFF791FF2368089A53402360099AA0
:1056F0006368534063600A9AA3685340A3600B9A9F
:10570000E3685340E3600CB010BD00BFE69F3C73FC
:10571000F8120120E37D494A0928A8F3A45ECCA031
:10572000C4E08029027661DD731EE2E1DA377F7A18
:10573000D90F7E01CC233E131AE9A446034B1B6804
:10574000984201D2FEF7C0BE704700BFF4050110B9
:10575000034B1B68984201D2FEF798BE704700BF0A
:10576000F405011008B5FEF7CDFE024B01221A70B8
:1057700008BD00BFDC0B002038B50E4B1B7804467B
:105780008BB1302810D0312812D022060BD500253D
:1057900044FA05F3DB0703D5A81CC0B2FFF7D8FF16
:1057A0000135072DF4D138BD0120FFF7D1FFECE71B
:1057B0000020FAE7DC0B002038B50E4B1B780446BE
:1057C0008BB1302810D0312812D022060BD50025FD
:1057D00044FA05F3DB0703D5A81CC0B2FFF7AEFF00
:1057E0000135072DF4D138BD0120FFF7A7FFECE705
:1057F0000020FAE7DC0B002007B505238DF8003008
:1058000000204FF0FF33019302F0B2F9684602F036
:10581000C3F901F067F8074B4FF40012C3F8842175
:105820005A6002F0B3F9044B01221A7003B05DF81C
:1058300004FB00BF00E100E0DD0B002008B53020D4
:10584000FFF79AFFBDE80840014800F063BE00BFC3
:1058500000800240FFF7F2BFFFF7F0BFFFF7EEBF97
:10586000FFF7ECBFFFF7EABFFFF7E8BFFFF7E6BFC0
:1058700007B500230F4A0193019B934216DD0E4AA0
:10588000002313600D4A012111700D4A1360FFF7C8
:1058900069FF3120FFF790FF3020FFF76DFFFFF722
:1058A000DDFE03B05DF804EBFFF7A6BF019B0133FB
:1058B0000193E1E7FEFF3F00E00B0020DE0B00203C
:1058C000E40B002008B572B63120FFF755FF054AFA
:1058D000136801331360044A1378002BFCD162B6BD
:1058E00008BD00BFE00B0020DE0B002010B50B4C04
:1058F0003020FFF741FF2378022B00D0FEE7084B52
:1059000008482022C3F8802001F068FC012323709E
:10591000636813B1BDE81040184710BDE80B0020C4
:1059200000E100E00000014008B53020FFF724FF4F
:10593000044B05484022C3F88020BDE8084001F030
:105940004DBC00BF00E100E000100140014801F043
:10595000EDB800BF00D00140014801F0E7B800BF3A
:1059600000E00140014801F0E1B800BF00F0014053
:10597000164A10B50023044611461069A0420FD103
:10598000107868B1142202FB03134FF0FF321A6142
:105990005B6803B198472046BDE8104000F094BD15
:1059A000D068A0420BD1107848B114225343CA18D2
:1059B0004FF0FF30D0600120C8549368E9E701330D
:1059C000032B02F11402D8D110BD00BFF40B00204C
:1059D0000228F8B50D4657D8324B1F5C002F5BD11B
:1059E000314C324E2A68A968142303FB0763204612
:1059F0005A606A689A604FF0FF32C3E903220022BE
:105A000001F07CFD002801DAFFF75CFF4FF0FF3169
:105A1000204601F007FE4FF0FF31204601F000FE66
:105A20000821204601F0B0FD0021204601F0AEFD26
:105A30000021204601F0ACFD2B7B2BB1012200237D
:105A40001146204601F0A6FD194800F005FD194B4E
:105A50004FF080521A604FF000521A604FF08042AF
:105A60001A604FF000421A6010229A6020229A6059
:105A700040229A6080229A604FF480729A601423C8
:105A80007B430122F254F8BDFFF71CFFFFF71AFF1A
:105A9000BDE8F840FFF716BF074C084B012F18BFB1
:105AA0001C469EE7C109011000200440F40B0020B1
:105AB0000080024000E100E000300440004004406B
:105AC000022808B506D8064B1A5C14235343054A2E
:105AD000D05C08BDFFF7F6FEFFF7F4FE0020F8E704
:105AE000C1090110F40B00202DE9F04102288CB00F
:105AF000884617464BD82E4B1D5C002D4ED12D4E9F
:105B0000FFF7D2FA2C4800F0D1FC0446FFF7E4FA84
:105B1000072C3ED8294A0894142303FB0523CDE91A
:105B200006871C610023ADF826300A9301239D42AD
:105B30000B93049438D0022D38D04023ADF8243094
:105B400004AB0FCB8DE80F000CAB13E90F0000F096
:105B5000BDFC1B49204600F0C5FC204600F0C6FCF9
:105B6000630103F1804303F520332046D3F800217D
:105B700042F00042C3F80021336A43F4803343F01B
:105B8000020333620CB0BDE8F04100F0C1BCFFF786
:105B900099FE0CB0BDE8F041FFF794BE012D16BF91
:105BA000084E094E0225ABE75023C7E7E023C5E7BF
:105BB000C10901100020044000800240F40B0020C5
:105BC0007159001000400440003004402DE9F041BC
:105BD00002288CB0884617464ED8314B1D5C002DEC
:105BE00051D1304EFFF760FA2F4800F05FFC0446B9
:105BF000FFF772FA072C41D82C4A089414236B4300
:105C0000D118CDE90448CC600221D15401220023EF
:105C10009542CDE90A23ADF82630079739D08D4259
:105C20003AD04FF41073ADF8243004AB0FCB8DE8AD
:105C30000F000CAB13E90F0000F048FC1C49204694
:105C400000F050FC204600F051FC630103F180435A
:105C500003F520332046D3F8002142F00042C3F878
:105C60000021336A43F4007343F0010333620CB044
:105C7000BDE8F04100F04CBCFFF724FE0CB0BDE8DD
:105C8000F041FFF71FBE012D16BF0A4E0A4E022536
:105C9000A8E74FF41473C6E74FF43873C3E700BFA7
:105CA000C10901100020044000800240F40B0020D4
:105CB00071590010004004400030044042488546BD
:105CC0004248804780B94249424A434B9B1A03DD10
:105CD000043BC858D050FBDC4049414A0020914267
:105CE000BCBF41F8040BFAE73E4880473E48804776
:105CF0003E488047FFF7FEFFFEE7FEE7FEE7FEE7D0
:105D0000FEE7FEE7FEE7FEE7FEE7FEE7FEE7FEE76B
:105D1000FEE7FEE7FEE7FEE7FEE7FEE7FEE7FEE75B
:105D2000FEE7FEE7FEE7FEE7FEE7FEE7FEE7FEE74B
:105D3000FEE7FEE7FEE7FEE7FEE7FEE7FEE7FEE73B
:105D4000FEE7FEE7FEE7FEE7FEE7FEE7FEE7FEE72B
:105D5000FEE7FEE7FEE7FEE7FEE7FEE7FEE7FEE71B
:105D6000FEE7FEE7FEE7FEE7FEE7FEE7FEE7FEE70B
:105D7000FEE7FEE7FEE7FEE7FEE7FEE7FEE7FEE7FB
:105D8000FEE7FEE7FEE7FEE7FEE7FEE7FEE7FEE7EB
:105D9000FEE7FEE7FEE7FEE7FEE7FEE7FEE7FEE7DB
:105DA000FEE7FEE7FEE7FEE7FEE7FEE7FEE7FEE7CB
:105DB000FEE7FEE7FEE7FEE7FEE7FEE7FEE7FEE7BB
:105DC000FEE7FEE7FEE7000000000220915E001003
:105DD000280E011000000020580A0020580A002058
:105DE00030130120955E0010C59500108942001007
:105DF00008B50A4B1968024609B9094919601868BB
:105E0000084902448A4206D903F0BCFB0C23036014
:105E10004FF0FF3008BD1A60FCE700BF300C0020D7
:105E20003013012000F001204FF080439B6803F401
:105E30006063B3F5006F1CD011D8B3F5806F1AD032
:105E4000B3F5C06F0E4B08BF4FF4FA534FF08042CA
:105E50009268C2F38212D3400A4A13607047B3F5C6
:105E6000206F0AD0B3F5406F054B08BF4FF40043D5
:105E7000ECE7054BEAE7054BE8E74FF4E103E5E71C
:105E8000008793038C00002000D8B8050048E80183
:105E90000020704708B5354B354A9A60354B9A68F3
:105EA000302A0BD91B6C990708D54FF0804204208B
:105EB000936823F4E073936000F01CFA2B4AD2F845
:105EC000883043F47003C2F88830BFF34F8FBFF3BC
:105ED0006F8F294B294A43F001039364284B4022DA
:105EE0001A600022C3F8F42703F2F47303F5253394
:105EF0000122C3F80027D3F80021D203FBD5D3F841
:105F0000002142F00102C3F800211E4AD2F80031FC
:105F1000DB03FBD5FFF788FF002000F083F90120A9
:105F200000F080F9184BD3F8C0204FF0FF32C3F8CF
:105F3000C020D3F8B810C3F8B820196E1A66596E8D
:105F40000021596603F58053D3F8C000C3F8C02080
:105F5000D3F8B800C3F8B820186E1A665A6E59669E
:105F6000FEF722FAFFF784FC08BD00BF00ED00E059
:105F70000040001000440040BD5C0010006800407C
:105F80000C04004000A002400080004038B5194BCE
:105F900019499C681A6822F480320A601A68D2078C
:105FA0005BBF6FF07F4405225D685C605CBF9C60F6
:105FB0001A60124B124A19684FF00003A0FB01014E
:105FC00054BF4FF0807501350AF034F90D4AB0FB2B
:105FD000F5F305FB13008442136098BF13680A4968
:105FE0009CBF64190133A4EB000498BF13600C60DC
:105FF00038BD00BF10E000E0380C00208C0000200D
:1060000040420F00900000203C0C002010B50B4ACD
:106010000B4C11602268002A0DDC08B9002010BD6D
:10602000FFF7B4FF2368002BC1BF064A136843F093
:1060300002031360F2E76FF00500F0E7340C002074
:106040009000002010E000E010B5084C236823B158
:106050006FF00F00984700232360054B1A68054B2B
:106060001A60054B4FF0FF321A6010BD340C00204F
:10607000380C002010E000E09000002038B5114BF3
:106080001A68002A0ADA104D2B6813B9002420463A
:1060900038BD0020984700242C60F8E71C6874B9CC
:1060A0000A4B9A680A4B1B689A4208D8064DFFF7BC
:1060B000CBFF2B68002BE9D020469847ECE76FF028
:1060C0000504E4E790000020340C002010E000E01C
:1060D0003C0C00202DE9F041044688B04FF084507C
:1060E00010260D4600F036FC32460021204603F013
:1060F0008FFB4FF08451364A0B68364FDB0B237011
:106100000B68DB0D637013685B00DBB2A37009687A
:1061100043EAD173A3701368DB09E3701368DB0BE8
:1061200023711368DB0D63715368DB0BA371536834
:10613000DB0DE3713B685B00DBB204322372126853
:1061400043EAD27323723B68DB0963723B68DB0B63
:10615000A37275B3324600210DEB060003F058FB25
:1061600032460021284603F053FB3B68C3F3C7586F
:10617000194B012100201F6801F076F8002101234E
:10618000CDE9016500910DEB0602204601F088F88B
:106190006B784345C7F3C73702D12B78BB4208D091
:1061A0004FF0845000F0E4FB6FF0070008B0BDE84A
:1061B000F081084B1B68DB0DE372074B1B68DB0BA0
:1061C00023734FF0845000F0D3FB0020EEE700BFB4
:1061D000040080100C008010100080101F284FF069
:1061E000804385BF20389A6C5A6AC0B2012303FAF3
:1061F00000F010420CBF1846002070471F284FF0D7
:10620000804208D92038916CC0B2012303FA00F013
:10621000084390647047516A012303FA00F0084371
:10622000506270471F284FF0804309D920389A6C7C
:10623000C0B2012101FA00F022EA00009864704720
:106240005A6A012101FA00F022EA00005862704700
:1062500038B5002104464FF47A70FFF7D7FE4FF0AF
:106260008045AB68234203D0FFF7EEFE002038BD27
:10627000FFF704FF0630F4D06FF00900F7E70628B7
:1062800005D8DFE800F01A04233507112C006FF061
:10629000020070474FF080424FF00060936843F473
:1062A00000239360FFF7D4BF4FF080424FF080503F
:1062B000936843F480139360F4E74FF080424FF00B
:1062C0008060936843F480239360EBE74FF0804253
:1062D0004FF08070936843F480339360E2E74FF0AF
:1062E00080424FF00070936843F400339360D9E725
:1062F0000020704738B54FF080439D68062800F2B3
:106300009080DFE800F0448E586E042E75009A6885
:10631000120318D54FF08042936823F4606343F46E
:10632000006393604FF40050FFF792FF044600288B
:1063300074D04FF0804205F46065936823F4606385
:106340002B43936009E09A6842F400229A604FF070
:106350000060FFF77DFF0028DCD06FF009042046C5
:1063600038BD9A68D40207D54FF08042936823F471
:10637000606343F42063D4E79A6842F480129A6021
:106380004FF08050FFF764FF0028EDD0E5E79A68F2
:10639000500305D54FF08042936823F46063C0E753
:1063A0009A6842F480229A604FF08060FFF750FFB5
:1063B0000028EFD0D1E79A68D10307D54FF080428B
:1063C000936823F4606343F48063AAE79A6842F415
:1063D00080329A604FF08070FFF73AFF0028EDD0CE
:1063E000BBE79A6822F4606242F4C0629A6099E75F
:1063F0009A68920307D54FF08042936823F4606354
:1064000043F440638DE79A6842F400329A604FF09B
:106410000070FFF71DFF0028EDD09EE7FFF704FD99
:106420009DE76FF002049AE71F284FF001030AD995
:106430002038C0B203FA00F04FF0804358645A6C21
:106440001042FCD1704703FA00F04FF080435860CF
:106450005A681042FCD1704738B5124B9842044636
:106460000FD10520FFF7BAFE054628B90520FFF732
:10647000D9FE2846FFF7D8FF2046BDE8384000F097
:1064800055B8094B984209D13520FFF7A7FE0028DF
:10649000F2D13520FFF7C6FE1B20EBE76FF00200BC
:1064A00038BD00BF0080024000500340054B9842B9
:1064B00003D003F55043984201D100F099B86FF032
:1064C000020070470080024000F0DCB810B485B0D4
:1064D0006C4684E80F0094E80F0005B05DF8044BAB
:1064E00000F012B900F04AB900F07EB90728014661
:1064F00007DDA0F10803072B034888BF002000F048
:106500004DB90248FBE700BF005003400080024045
:1065100000F080B9044B984203D003F550439842F1
:1065200001D100F099B97047008002402B4B98428E
:106530002DE9F04107462CD0294EB0420CBF012670
:106540004FF0FF36274B53F82620F4009846002AD8
:106550003ED1254801F019FC2348012101F007FC38
:106560000546C0BB214B3860142202FB043304F102
:10657000080C0146644503F114030CD158F8263089
:106580001948013348F8263001F0FFFB2846BDE8E2
:10659000F0810026D6E7604200F0070004F0070211
:1065A00058BF424202F1080007EB421207EB4010CD
:1065B00043F80C4C43F8080C43E90511C2F80011EC
:1065C000D2F80401C2F80401013443F8041CD1E7F5
:1065D0006FF00605DAE76FF00505D7E700800240A7
:1065E00000500340400C0020480C00204C0C0020C0
:1065F00038B5204B984222D003F5504398420CBF47
:1066000001234FF0FF331C4A52F8233063B3194B78
:10661000984216D003F5504398420CBF08246FF0FF
:1066200007041648012101F0A2FB00BB144B04F142
:1066300008001425844206D16FF00D040DE00023FC
:10664000E1E70024EDE705FB04F1CA5852B95818F8
:1066500001255D50C3681A60DA61084801F095FBB6
:10666000204638BD0134E5E76FF00604F8E76FF027
:106670000504F5E700800240400C0020480C002093
:106680004C0C00200F28F8B516D814230D4E03FB30
:1066900000F5771973597BB10B48012101F067FBB5
:1066A000044660B9FB68705118605A6806485A6021
:1066B00001F06BFB2046F8BD6FF00204FAE76FF0C3
:1066C0000504F7E74C0C0020480C002084B00DF1C5
:1066D000100C0CE90F0000990F290FD81423094A58
:1066E0004B43D118D3584BB1CB68019A9A60029AA8
:1066F000DA60039A1A61002004B070476FF002005C
:10670000FAE700BF4C0C002010B485B004AC04E9DB
:106710000F00009B0F2B28D81421174A59435358B8
:106720001BB3029B002B039B14BF4FF48024002457
:10673000002B9DF807300A449DF80610D2684FEAF6
:10674000035343EA0143BDF8041043EA010314BFB5
:106750004FF48000002023430343136006AB0FCBAC
:1067600005B05DF8044BFFF7B1BF6FF0020005B054
:106770005DF8044B704700BF4C0C00200F2808D870
:106780001423054A58431318125812B119610020F6
:1067900070476FF0020070474C0C00200F290ED894
:1067A0001423084A4B43D3584BB10268012301F02C
:1067B000070103FA01F111430160002070476FF0F7
:1067C000020070474C0C00200F2808D81423054AFB
:1067D00058431318125812B1DB68586870476FF0AD
:1067E000020070474C0C00200F280DD81423084AD3
:1067F0005843131812583AB1DB685A6801F05F0128
:1068000011435960002070476FF00200704700BFCD
:106810004C0C00200F2838B5044618D814230D4A14
:106820004343D518D35893B1FFF7CEFF0146204616
:10683000FFF75AFEEB68D8691A6820B142F00302EC
:106840001A60002038BD42F001021A60FAE76FF0CA
:106850000200F7E74C0C0020F8B51A4B98420ED016
:10686000194CA0420CBF01244FF0FF34E400174B39
:1068700004F1080514260127AC4202D1F8BD00241A
:10688000F4E70F2C1BD806FB04F1CA58BAB1D0F8B4
:1068900004C004F0070207FA02F212EA0C0F0ED04D
:1068A0000B441B6913B10021204698472046FFF78F
:1068B0008BFF01462046BDE8F840FFF715BE0134C6
:1068C000DAE700BF00800240005003404C0C00207B
:1068D000034B4FF0FF325A60DA601A63704700BF13
:1068E000006800404FF08042D36843F08003D360DB
:1068F0007047000008B5FFF7EBFF034A136923F068
:106900000403136130BF08BD00ED00E001F17043E6
:10691000B3F5002F03D20D4B03600020704701F147
:106920006F4303F57803B3F5002F01D2084BF3E76B
:10693000A1F18451B1F5804FEDD3A1F58041B1F5BE
:10694000804FF3D36FF00200704700BF0090024009
:10695000009402401FB50146019003A8FFF7D6FF3F
:1069600018B90199039800F011F805B05DF804FB1F
:106970001FB50146019003A8FFF7C8FF18B9019998
:10698000039800F023F805B05DF804FBA1F18451F1
:10699000B1F5004F14D241F23423036403F169537B
:1069A00003F57D1303F66F23036403F1D043A3F5CE
:1069B0001C03A3F683530364034B03640020704756
:1069C0006FF00200704700BFC1B20896A1F1845178
:1069D000B1F5004F3DBF034B036400206FF0020090
:1069E000704700BFEFBEADDE38B5D0E90042017A96
:1069F0000546204600F06CF8002844D16B7A042B41
:106A00003FD8DFE803F0032236132E00226E6968B8
:106A100022EA01022266636E23EA010363666A6862
:106A2000A97A2046BDE8384000F040B8236E6A6875
:106A300013432366636E23EA02036366D4F8B83017
:106A400023EA0203C4F8B830E9E7226E6B681A4300
:106A50002266626E22EA03026266D4F8B82013430B
:106A6000F0E7236E6A6823EA02032366636E13432A
:106A7000E3E7226E6B6822EA03022266626E1A4323
:106A8000EAE76FF0020038BD00F008B800F008B87F
:106A900001F080B900F006B800F006B8C161704797
:106AA0000162704781647047006C704721B1012911
:106AB0000AD06FF002007047D0F8C03023EA02021B
:106AC000C0F8C02000207047D0F8C0301A43F7E764
:106AD000036B13430363052917D8DFE801F00309AB
:106AE0000B0F1214426142600267C26700207047B8
:106AF0000261F8E7C26702678260F7E7C267C266B1
:106B0000FAE78267F7E78267F9E76FF002007047FC
:106B100000F012B800F023B800F02FB800F040B831
:106B200000F051B800F057B800F05DB8014B19689B
:106B300000F018BB9400002070B1036B13F0010348
:106B400005D0036B43F00203036300207047026B20
:106B500042F001020263F8E74FF0FF30704748B19E
:106B6000036B43F004030363036B13F00403FBD1D3
:106B7000184670474FF0FF30704710B568B161B1EB
:106B800000239A4201D1184610BD4468A407FAD4E4
:106B9000C46AE4B2CC540133F3E74FF0FF30F3E7BB
:106BA00010B568B161B100239A4201D1184610BDF9
:106BB0004468E406FAD4CC5CE4B2C4620133F3E77F
:106BC0004FF0FF30F3E7C36943F08003C361C3694B
:106BD0001B06FCD47047436A43F080034362436A58
:106BE0001B06FCD47047816002617047164B9842C7
:106BF0001DD003F5805398421BD003F58053984273
:106C000019D003F57E23984217D003F5805398429C
:106C100016D00E4A48F2020390420CBF18464FF0BD
:106C2000FF300B4B53F82000C36963B118470020B5
:106C3000F7E70120F5E70220F3E74FF40040F0E723
:106C400048F20100EDE7704700D0014000F011402C
:106C500014130120174A00239042C36043611CD0E3
:106C6000154B98421BD003F58053984219D003F579
:106C70007E23984217D003F58053984216D002F530
:106C8000811248F2020390420CBF18464FF0FF30C9
:106C90000A4B002243F8202070471846F8E70120ED
:106CA000F6E70220F4E74FF40040F1E748F2010074
:106CB000EEE700BF00D0014000E0014014130120C6
:106CC000644A654B2DE9F04752F8208053F8207054
:106CD000064692469946002800F08F80012800F071
:106CE0008E80022800F08D80B0F5004F00F08B8080
:106CF00048F20103984200F08880584C48F20203A1
:106D0000984218BF0024564B53F82650EA68424573
:106D10001DD9A368990609D5A968A2EB08024144C8
:106D20002046FFF7FBFE20238044A360A36813F4F2
:106D3000FE4F0CD0C5F80C802046FFF7EBFE204636
:106D40006FF00801FFF752FF2046FFF783FF6A69E3
:106D5000BA4233D9A36813F0110F08D02969D21BA6
:106D600039442046FFF7D8FE10230744A360A368E8
:106D700013F4FE4F0BD06F612046FFF7CBFE204689
:106D80006FF00801FFF732FF2046FFF763FFA368AB
:106D9000DB0713D56B69BB4210D2DB1BB3F5807FD9
:106DA00088BF00232362236B43F002032363012384
:106DB000A3606B685B0043F00103E362EB6843454B
:106DC0003ED127B36B69BB423AD1E36823F011038C
:106DD000E360AB69002B39D0236B43F002032363DC
:106DE000A16811F4FE41204618BF6FF00801FFF7BB
:106DF000FDFE2046FFF72EFF22E01A4C83E71A4CD7
:106E000081E71A4C7FE71A4C7DE71A4C7BE7E36871
:106E10006A6923F02003E360E368B2F5807F43F002
:106E20001103E36020468CBF27622262FFF770FEE9
:106E30006B685B0043F00103E362EB684345C1D03C
:106E40004AF8268049F82670BDE8F087236B43F0A6
:106E50000403C4E7081301202013012000F01140AF
:106E60001413012000D0014000E0014000F0014077
:106E700000D0114000E011402DE9F047B44FD0F8A8
:106E80000890D0F800A098461740002304460E460C
:106E90001546C8F80030002F40F0AA8019F4FE42D1
:106EA00000F0E0806FF00803C8F80030424604218B
:106EB000B04707226FF07F412046FFF735FE20469E
:106EC000FFF730FE2046FFF72BFEA24B9C4200F05E
:106ED000BD8003F580539C4200F0BA8003F58053D7
:106EE0009C4200F0B78003F57E239C4200F0B48002
:106EF00003F580539C4200F0B28003F5805348F2C2
:106F000002019C4218BF4FF0FF31934B002543F81C
:106F1000215048F222031D4240D019F0200F05D025
:106F2000002203212046B0472023A36023699B074A
:106F300005D5002205212046B0470223236119F41C
:106F4000004F2BD000254246C8F8005004212046AF
:106F5000B047804A4FF400439442A36000F0988009
:106F600002F58052944200F0958002F580529442DE
:106F700000F0928002F57E2294420BD0774B9C4227
:106F800000F08C8002F5005248F20203944218BFD0
:106F90004FF0FF33704A002542F8235019F0400F9C
:106FA00026D00025C8F80050424604212046B047AC
:106FB0004023A360674B9C4273D003F580539C42EF
:106FC00071D003F580539C426FD003F57E239C4221
:106FD0006DD003F580539C426CD0614A48F20203A5
:106FE000944218BF4FF0FF335B4A002542F823500C
:106FF00019F4800F0AD0002211462046B0474FF402
:107000008003A3600823A36047F6117519F4000FED
:107010000AD0002201212046B0474FF40003A360AC
:107020000823A3604FF6227519F008074ED01AF412
:10703000006242D0002201212046B0470823A3600D
:107040004FF62275A3602846BDE8F08739465CE715
:1070500001215AE7022158E74FF4004155E748F271
:10706000010152E715F0110F3FF453AF19F0100F63
:1070700003D00221B0471023A3602369DA077FF50C
:1070800048AF002206212046B0470123236140E794
:107090002B467FE701237DE702237BE748F20103CC
:1070A00078E72B46A0E701239EE702239CE74FF4F5
:1070B000004399E748F2010396E711462046B0479E
:1070C0000823A36047F61175A360BCE719F4FE4FCF
:1070D000B9D06FF0080342460421C8F800302046BA
:1070E000B0476FF07F43A360072323612046FFF77B
:1070F00072FDFFF768FD174B9C421DD003F58053CE
:107100009C421BD003F580539C4219D003F57E238B
:107110009C4217D003F580539C4216D003F5805350
:1071200048F202009C420CBF04464FF0FF340A4B69
:10713000002543F8245086E73C46F8E70124F6E7AB
:107140000224F4E74FF40044F1E748F20104EEE7CB
:107150000800C00000D001401413012000E01140DD
:1071600000F011401B4B984213B5044616D003F5AE
:10717000805398421AD003F58053984218D003F5F3
:107180007E23984216D003F58053984215D003F51C
:107190008053984208D148F2020000E000202368A2
:1071A0009B070DD5FFF78CFD02B010BD0120F6E75F
:1071B0000220F4E74FF40040F1E748F20100EEE767
:1071C0000549E26851F8201001AB2046FFF754FE54
:1071D000E060E9E700D001401413012000F000B89E
:1071E0000123C36070474FF0804310B59A68520383
:1071F000044605D50E2C10D12046FFF713F80EE0FB
:107200009A6842F480229A604FF08060FFF720F87D
:107210000028EFD06FF0090010BD222CECD0002028
:10722000FAE70000014800F04DB800BF0010004030
:107230000138C0B204289ABF014B185C0020704787
:10724000C90901100138C0B204289ABF014B185C6B
:1072500000207047C409011000F04CB801460148F5
:1072600000F054B8001000400A460146014800F002
:1072700056B800BF001000401FB5089C0394079C3F
:1072800002949DF81840CDE9003413460A460146A1
:10729000024800F050F804B010BD00BF00100040DC
:1072A00010B49DF8044001945DF8044B00F09EB8C2
:1072B00004390244904200D1704751F8043F40F82D
:1072C000043BF7E710B504460E20FFF78CFF22467B
:1072D000012342F8D43B0021234643F8041B9A4281
:1072E000FBD1236843F480432360236843F0F853C1
:1072F000236010BD10B50C46FFF7A4FFB4FBF0F3FC
:1073000000FB134000B10133184610BD436819B1AA
:1073100023F001034360704743F00103FAE770B5BF
:10732000144605460E46240144EA0624FFF77AFF78
:107330006C60002070BD2DE9F74F0E46DDE90E1A96
:107340009DF830509DF834B0044617469846002901
:1073500046D0002E47D012B9BBF1000F43D1B8F18F
:10736000000F40D02846FFF777FF81462846FFF7F9
:107370005FFF01902846FFF765FF019A05464146E9
:1073800004F16000FFF794FFBBF1000F05D02A461F
:10739000394604F15000FFF78BFF002704F1200865
:1073A00004F1300B4F4503D1002003B0BDE8F08F4E
:1073B00023685A00FCD52A4631464046FFF778FF3D
:1073C00023681B01FCD550462A465946FFF770FF3B
:1073D000236843F000632E44AA4423600137E1E7A9
:1073E0006FF00300E1E74FF0FF30DEE72DE9F341F6
:1073F0001C46013B022BCDE90021DDE909789DF80F
:10740000206005460ED80120FFF728FFDDE90021A6
:1074100023462846CDE90978089602B0BDE8F04138
:10742000FFF72ABF6FF0020002B0BDE8F08108B597
:107430002220FEF7F7FE00F013F8002008BD10B57B
:1074400000F010F804462220FEF7D8FE204610BDBA
:10745000014800F009B800BF00D0044000F009B8AE
:1074600000207047002070474368DB07FCD5806828
:107470007047F7B50C460646C0B121F0030700255A
:10748000BD420DD114F0030413D0FFF7E1FF2246F3
:10749000019001A9701902F0B9F8002003B0F0BD05
:1074A000FFF7D6FF705101900435E9E74FF0FF3048
:1074B000F4E72046F2E7000008B50D4B984207D1EB
:1074C0000B20FEF7B1FF0920FEF798FE002008BD53
:1074D000084B984204D10C20FEF7A6FF0A20F3E7E0
:1074E000054B9842F2D11C20FEF79EFF2120EBE7CE
:1074F00000200440003004400040044070B50446C1
:107500000E461546FFF7D8FF38BB144B9C4202D1FC
:107510006DB113480CE0134B9C4202D19DB112484F
:1075200012E0124B9C4208D195B1114811E011486C
:10753000FFF75AFA0920FEF775FE31462046BDE8EE
:10754000704000F071B80C48FFF74EFA0A20F2E7DD
:107550000A48FFF749FA2120EDE770BD00200440FA
:10756000E809011000300440180A011000400440EE
:10757000480A0110D0090110000A0110300A011058
:1075800000F07CB800F002B900F054B900F06EB918
:1075900000F08AB970B51646104A904204460D466E
:1075A00002D16BB10E480CE00E4A904202D18BB171
:1075B0000D4806E00D4A904205D16BB10C4800E041
:1075C0000C48FFF711FA324629462046BDE87040C4
:1075D00000F0DCB90848F4E70848F2E7002004406E
:1075E000F409011000300440240A01100040044056
:1075F000540A0110DC0901100C0A01103C0A0110A8
:1076000000F0F8B900F00EBA00F0F0BB00F0FABBE1
:1076100000F022BA00F024BA00F028BA00F040BA14
:1076200000F05ABA00F06CBA70B50E46012105465A
:10763000FFF7F2FF0446F8B902212846FFF7EEFFF4
:107640000446C8B908212846FFF79EFF044698B9AA
:1076500001462846FFF79CFF044668B901462846C4
:10766000FFF794FF044638B92B6843F001032B6001
:1076700031462846FFF784FF204670BD404B9842B4
:1076800030B407EE101A07D003F58053984203D0A8
:1076900003F58053984222D103681B045BBF394B2A
:1076A0001B684FF4E1035B0807EE903AB8EE477AA7
:1076B000F8EEE77A0522C7EE876A0823F7EE007A2C
:1076C00007EE103AB8EEC76A86EE867AB4EEE77A2D
:1076D000F1EE10FA07D50E2B4FEA630108DC6FF0CC
:1076E000020030BC7047013A4FEA4303E8D18021E1
:1076F00007EE901AB8EEE77AC6EE877ABDEEE77A23
:10770000F8EEC76A77EEE67AF0EE676AFEEEEC6AAC
:1077100016EE903A032BCCBFDA1EDA1C202926D0B5
:1077200006DC082925D0102925D06FF00700D8E7FE
:10773000402922D08029F8D1002341691B0421F47B
:10774000403103F440330B43436144690E4917EE63
:10775000103A0C40C3F30B052C4344618369194074
:10776000C2F30B030B4330BC8361FFF70BBF022353
:10777000E3E70423E1E70323DFE70123DDE700BFBD
:10778000002004408C00002000F0FFFF03689FED04
:10779000267A1B045CBF254B1A684369C3F30B03AD
:1077A00007EE903A8369F8EEE77AC3F30B0337EEFE
:1077B000877A07EE903AF8EEE77AF0EE086AF4EE90
:1077C000E67A54BF52084FF4E102F1EE10FAB0EE3F
:1077D000666A26DDF1EE085AF4EEE57AF1EE10FA6B
:1077E0001FD877EEE67ADFED126A4369A7EEA67A34
:1077F00003F44033F0EE477A07EE102AC3F1070294
:1078000001239340F8EEC76A07EE103AB8EEC77A44
:1078100067EE277A86EEA77AFDEEC77A17EE900A12
:10782000704777EE867ADEE7000000008C000020CB
:107830000000003C0C4B984207D003F5805398425F
:1078400003D003F5805398420AD10539032907D89C
:10785000036823F4407343EA01210160002070476C
:107860006FF00200704700BF002004400D4B9842AB
:1078700007D003F58053984203D003F58053984214
:1078800002D121B1012908D06FF0020070470368CE
:1078900023F48063036000207047036843F480632F
:1078A000F8E700BF00200440374B984207D003F5AB
:1078B0008053984203D003F58053984260D10C293D
:1078C0005ED8DFE801F0070D25394D0D19252F3958
:1078D000434D5500036823F0020303600020704706
:1078E000036843F002030360036823F00C030360A2
:1078F000036823F01003F0E7036843F0020303601A
:10790000036823F00C030360036843F01003E4E70B
:10791000036843F002030360036823F00C0343F0A1
:107920000403E4E7036843F002030360036823F001
:107930000C0343F00403E6E7036843F0020303602B
:10794000036823F00C0343F00803D0E7036843F017
:1079500002030360036823F00C0343F00803D2E73B
:10796000036843F002030360036843F00C03BEE7BF
:10797000036843F002030360036843F00C03C2E7AB
:107980006FF00200704700BF00200440184B98427F
:107990000AD003F58053984206D003F580539842ED
:1079A00002D06FF002007047012910D0022916D0D2
:1079B0000029F6D1036823F40063013A1F2A03600B
:1079C000EFD8436823F47C134360002070470368BA
:1079D00043F400630360036823F48053EDE7036816
:1079E00043F400630360036843F48053E5E700BF9A
:1079F000002004400A4B984207D003F58053984278
:107A000003D003F58053984204D18368DB0604D485
:107A1000C06970476FF0020070476FF00C0070474C
:107A2000002004400B4B984207D003F58053984246
:107A300003D003F58053984206D1836813F0800386
:107A400005D1C161184670476FF0020070476FF0B2
:107A50000B007047002004408068C0F30520704789
:107A60008068C0F30540C0F1200070470B4B98427E
:107A700007D003F58053984203D003F58053984212
:107A800009D14B1E1F2B06D8436823F03F0319432F
:107A90004160002070476FF00200704700200440F2
:107AA0000C4B984207D003F58053984203D003F55E
:107AB000805398420AD14B1E1F2B07D8436823F4EA
:107AC0007C5343EA01214160002070476FF00200BF
:107AD000704700BF00200440084B984207D003F5D0
:107AE0008053984203D003F58053984202D101613C
:107AF000002070476FF00200704700BF0020044074
:107B0000094B984207D003F58053984203D003F500
:107B10008053984205D1C36823EA0101C160002067
:107B200070476FF00200704700200440084A9168D7
:107B3000030403F4F81321F4F8110B4393609368E2
:107B4000400500F0787023F0787318439060704718
:107B50000054004070B5054D064628460C4600F01E
:107B600001F92B6833602B6A236070BD006400400C
:107B700007B501900620FEF782FB0199024803B089
:107B80005DF804EB00F0C2B800640040014800F06A
:107B9000D1B800BF006400400146014800F0CFB8F2
:107BA00000640040014800F0DAB800BF0064004003
:107BB0002DE9F74FFFF7F6FF4A4B18689B46002860
:107BC00000F08A8001A96846FFF7C4FF464BDDF844
:107BD00004E0D3F800C0454B45491A68009B89680A
:107BE000DFF824A19B1A434AA3FB02894FEAD8324B
:107BF00042EA49424FEAD9334FF00009AEEB0C009C
:107C00004B4508BF8242C1F3044131D2DFF8F4C0D2
:107C1000861A69EB0307DCF800400025BD4208BF67
:107C2000B44222BF821A344BCCF80020334A28BF1A
:107C300019601368012B18BFB1FA81F301F1FF300D
:107C40004FF0FF3118BF5B091160002B35D1FFF7F2
:107C50006DFF25492548FFF77DFFDAF8003023B195
:107C6000274A136803F6FF7353606FF0050033E093
:107C7000994508BF90421ED2141A224863EB0905A9
:107C800006680027AF4208BFA64205D31A4BACEBEB
:107C90000E0C624402601960184A13685C1C01F102
:107CA00001004FF0010404D01F394B424B411460D6
:107CB000CBE72346FBE7104B19600F4B1868FFF723
:107CC00035FFDAF800300024CBF800403BB1204605
:107CD000CAF800409847204603B0BDE8F08F184628
:107CE000FAE700BFA00D00209C0D0020A40D00208D
:107CF0000054004040420F00900D0020940D0020E1
:107D0000006400408C0D0020980D0020002301220B
:107D10000361C260026911434FF0FF3201614260AA
:107D2000024A1360024A1360704700BFA80D00208A
:107D3000AC0D0020036943F08003036170470269C2
:107D40000B7810B503F00703046922F047021343D0
:107D500023430361012303604B68436010BD01238B
:107D6000C3607047036802689A42FCD0704750E8CD
:107D7000003F3BB940E80013002BF8D1BFF35F8F01
:107D8000184670476FF005007047BFF35F8F002300
:107D90000360704770B5054698B101280F4E18BFB3
:107DA00000263046FEF778FE014604463046FEF7D0
:107DB00071FE0B4E0B4806EBC51600EBC51514B94A
:107DC00070BD094EEDE7E30703D52B680BB13068B2
:107DD0009847640804360435F1E700BF009000407E
:107DE000B00E0020B00D00200080004010B5044609
:107DF0002046FFF70DFC0028FAD02046BDE81040D1
:107E0000FFF7FEBB13B5044620460191FFF702FCC5
:107E100001990028F8D0204602B0BDE81040FFF7D5
:107E2000F1BB10B5044600F03DFFA46B00F04AFF23
:107E3000B4FA84F0400910BDF8B51546026C866BA3
:107E4000044652B9076847BB806800F09DFDA760F3
:107E500005460136A6632846F8BD65B9406801F0BD
:107E6000D5FB6368226C1344A26863609342F0D32D
:107E700023686360EDE7C06801F0C8FB226CE3682B
:107E800051429B1A2268E36093423EBFA3685B188D
:107E9000E360022D01D116B1013E0025D9E7354638
:107EA000D7E7034610B41A6C08466AB1DC689968D3
:107EB00014448C4228BF1968DC6028BFD960D96897
:107EC0005DF8044B01F0A2BB5DF8044B704770B540
:107ED000044600F0E7FE94F8455004F124066DB224
:107EE000002D14DCFF2384F8453000F0EBFE00F099
:107EF000D9FE94F8445004F110066DB2002D12DC46
:107F0000FF2384F84430BDE8704000F0DBBE636AB4
:107F1000002BE7D0304600F0B3FC08B100F01EFDA6
:107F2000013D6DB2DCE72369002BE9D0304600F05B
:107F3000A7FC08B100F012FD013D6DB2DEE70000C4
:107F400038B504460D4600F0ADFED4E90F31226885
:107F500062604B43D0185B1A1344A060E3600020BA
:107F6000FF23A06384F8443084F8453095B9236931
:107F700063B104F1100000F083FC38B10A4B4FF0FC
:107F800080521A60BFF34F8FBFF36F8F00F09AFEDD
:107F9000012038BD04F1100001F032F904F1240091
:107FA00001F02EF9F2E700BF04ED00E0F8B5064657
:107FB000484350300D46174600F010FF044658B1B4
:107FC00065B100F15003C4E90F652360012120462B
:107FD000FFF7B6FF84F84C702046F8BD0346F2E781
:107FE0002DE9FF474FF00008DFF8F4A001920446A6
:107FF0000F461E46C14600F055FEA26BE36B9A4247
:1080000001D3022E19D1324639462046FFF714FF1C
:10801000636A1BB104F1240000F032FC38B1304B2C
:108020004FF080521A60BFF34F8FBFF36F8F00F095
:1080300049FE012004B0BDE8F087019D1DB900F0A4
:1080400041FE0020F6E7B8F1000F02D102A800F0CF
:1080500051FC00F037FE00F095FA00F023FE94F892
:108060004430FF2B08BF84F8449094F84530FF2B30
:1080700008BF84F8459000F025FE01A902A800F091
:1080800045FC30BB00F00EFEA26BE36B9A420FD1B1
:1080900000F018FE019904F1100000F0CDFB20461D
:1080A000FFF715FF00F008FB50B14FF00108A2E701
:1080B00000F008FE2046FFF70AFF00F0FDFAF4E7A3
:1080C0004FF08053CAF80030BFF34F8FBFF36F8F6C
:1080D000EBE72046FFF7FBFE00F0EEFAB1E700BF4A
:1080E00004ED00E0F8B504461746EFF311864FF0B3
:1080F000A00282F31188BFF36F8FBFF34F8F806BA5
:10810000E26B904201D3022B1ED194F845501A46DF
:108110006DB22046FFF790FE6B1C10D1636A0BB95D
:10812000012009E004F1240000F0AAFB0028F7D0A8
:10813000002FF5D00120386086F31188F8BD013595
:108140006DB284F84550EBE70020F5E72DE9F043E8
:1081500085B00027DFF8E090019204460E46B8464D
:1081600000F0A0FDA56BD5B131462046013DFFF7DB
:1081700098FEA563236963B104F1100000F080FB51
:1081800038B12D4B4FF080521A60BFF34F8FBFF3C1
:108190006F8F00F097FD012005B0BDE8F083019DD1
:1081A0001DB900F08FFD0020F6E717B902A800F016
:1081B000A1FB00F087FD00F0E5F900F073FD94F8F5
:1081C0004430FF2B08BF84F8448094F84530FF2BDF
:1081D00008BF84F8458000F075FD01A902A800F0F1
:1081E00095FBF0B92046FFF71CFEA0B1019904F100
:1081F000240000F021FB2046FFF769FE00F05CFA46
:1082000038B94FF08053C9F80030BFF34F8FBFF338
:108210006F8F0127A4E72046FFF759FE00F04CFAC4
:10822000F7E72046FFF753FE00F046FA2046FFF737
:10823000F8FD0028EDD0B6E704ED00E070B5044687
:108240000D46164600F02EFD94F84430FF2B04BF77
:10825000002384F8443094F84530FF2B04BF0023FA
:1082600084F8453000F02EFDA36B2BB93246294629
:1082700004F1240000F0F0FA2046BDE87040FFF75A
:1082800026BE000008B5074C074D4FF08056236806
:10829000012B04D92E60BFF34F8FBFF36F8FFBF715
:1082A000E7FFF4E7BC0F002004ED00E0064A136886
:1082B0001968064B19B94FF0FF321A6070471268FF
:1082C000D268D2685268F8E7B40F0020601000202E
:1082D000F8B51B4B1B4F1D680446386804300E462A
:1082E00000F0BFFF3B4640B939681748CF6A0268C3
:1082F0000121B94022EA01020260621C07D136B1B5
:1083000019681248BDE8F840043100F087BF1A68C8
:108310002C19546007D30E4A10681968BDE8F8405C
:10832000043100F087BF0B4A10681968043100F06F
:1083300081FF094B1A68A24288BF1C60F8BD00BFCC
:1083400094100020B00F002030100020801000207A
:10835000B80F0020B40F0020601000202DE9F84F66
:108360009600074630460D46984600F037FD814698
:10837000A0B15C2000F032FD044660B1C0F830903E
:108380003246A521484601F043FAD4F830B045B949
:1083900084F8345014E0484600F078FD4FF0FF3583
:1083A0008DE06B1E04F134020F3513F8011F02F843
:1083B000011B197809B1AB42F7D1002384F843308F
:1083C0000A9D042D28BF04254FF0000A04F104097A
:1083D000E562E5644846C4F850A0043E00F01BFF87
:1083E000C5F1050504F118005E4400F014FFC4F85F
:1083F00054A02461A561646284F858A042463946BD
:1084000026F0070000F022FC0B9B206003B11C60EB
:1084100000F048FC304B314E1A68314F01321A607F
:108420003268002A4ED134601B68012B22D12D48BE
:10843000DFF8E4802C4D00F0E3FE2C4800F0E0FE75
:108440002B4800F0DDFE2B4800F0DAFE2A4800F051
:10845000D7FE404600F0D4FE284600F0D1FE274863
:1084600000F0CEFE264800F0CBFE264BC3F800807D
:10847000254B1D60254A264913680868013313609F
:10848000E26A6364012505FA02F303430B60154BAE
:10849000142000FB0230494600F0C0FE00F012FC40
:1084A0003B6863B13368DA6AE36A9A4207D2194BD0
:1084B0004FF080521A60BFF34F8FBFF36F8F284683
:1084C000BDE8F88F3B68002BD4D13368E26ADB6AE1
:1084D0009A4228BF3460CDE720100020B00F002062
:1084E0007C100020BC0F002048100020D00F00207E
:1084F000E40F0020F80F00200C100020681000206E
:1085000080100020B40F0020B80F00202C10002095
:108510003010002004ED00E03410002013B5134BA0
:108520000193002412491348009423468022FFF748
:1085300015FF012818D100F00DFD012814D14FF0CE
:10854000A00383F31188BFF36F8FBFF34F8F0A4BE4
:108550004FF0FF321A60094B1860094B1C6002B0E3
:10856000BDE8104000F016BC02B010BD5C10002049
:10857000600A011085820010601000207C1000202D
:1085800094100020024A136801331360704700BF43
:1085900028100020014B1868704700BF941000207D
:1085A0003A4B1B682DE9F74F002B68D1384B1D68FB
:1085B00001351D605DB9374A374B11681868106086
:1085C000364A1960136801331360FFF76FFE344EAB
:1085D000344F3368DFF8D880AB424FF0000411D934
:1085E000D8F80030DA6A14235343FB58022B28BF13
:1085F00001242D4B1B68002B0CBF2046012003B02B
:10860000BDE8F08FDFF88CA0DFF8A890DAF8003032
:108610001B681BB94FF0FF333360E1E7DAF8003035
:10862000DB68D3F80CB0DBF80420954201D232604D
:10863000D6E70BF104010846019100F012FEDBF8C9
:108640002820019922B10BF1180000F00AFE0199CF
:10865000DBF82C00D9F80030012282401A43C9F817
:108660000020142202FB007000F0D8FDD8F80010A2
:10867000DBF82C20CB6A9A4228BF0124C6E70B4ABC
:108680001368013313600024B3E700BF28100020F3
:1086900094100020B40F0020B80F002064100020B8
:1086A00060100020BC0F0020981000202410002033
:1086B000B00F0020301000202DE9F34100F0F2FA55
:1086C0002A4B1A68013A1A601C6834B1002400F081
:1086D000F9FA204602B0BDE8F081254B1B68002B5B
:1086E000F4D0244D244EDFF8A4801FE0EB68DC6852
:1086F00004F1180000F0B5FD211D0846019100F0BD
:10870000B0FDE26A30680199012707FA02F30343DA
:10871000142000FB0280336000F080FD174BE26AFA
:108720001B68DB6A9A4201D3154B1F602B68002B34
:10873000DCD10CB1FFF7BAFD124D2C6844B1104EDC
:108740000127FFF72DFF00B13760013CF9D12C6004
:108750000B4B1B68002BB9D00B4B4FF080521A60AB
:10876000BFF34F8FBFF36F8F0124B0E728100020B5
:10877000201000206810002030100020B00F0020D2
:10878000981000202410002004ED00E0BC0F002011
:1087900010B5FFF7F7FE0F4B04681A6863182CBF7B
:1087A00001210021944203600CD961B9FFF784FFD5
:1087B00038B9094B4FF080521A60BFF34F8FBFF3A7
:1087C0006F8F10BD09B99A42F0D20021981AFFF7B5
:1087D0007FFDEBE79410002004ED00E0114B1A68D8
:1087E000114B30B512B101221A6030BD1A600F4B27
:1087F0001B68B3FA83F3DBB20D49C3F11F031420E6
:1088000000FB03F28C18083265686D6865600A44E5
:10881000954204BF6A68626000FB03135B68DA6814
:10882000044BE1E7281000209810002030100020B1
:10883000BC0F0020B00F002010B5064B0C46196885
:10884000183100F0F7FC20460121BDE81040FFF789
:108850003FBD00BFB00F002038B5084B0D4619686A
:108860001446183100F0DAFC002C21460CBF2846D3
:108870004FF0FF30BDE83840FFF72ABDB00F0020B1
:10888000C36837B5DC6804F118010846019100F0AF
:10889000E8FC124B01991B68F3B9211D08460191B0
:1088A00000F0DFFC0E48E26A05680199012393405D
:1088B0002B4303600B4B142000FB023000F0AEFC96
:1088C000094BE26A1B68DB6A9A4285BF074B0120AD
:1088D0000020186003B030BD0548EFE728100020E5
:1088E00030100020BC0F0020B00F00209810002096
:1088F00068100020034B1B680360034B1B68436038
:10890000704700BF641000209410002070B50C4622
:10891000054600F0C7F90F4B196823685A1C10D0A0
:108920000D482E6800686A68864201D08A420FD9D5
:10893000881A83420AD95B1A134423602846FFF73A
:10894000D9FF002400F0BEF9204670BD002323604B
:108950000124F7E79410002064100020014B01224D
:108960001A60704798100020054B1B6833B1054B07
:108970001B68002B0CBF02200020704701207047AD
:108980007C10002028100020F7B5044610B9002004
:1089900003B0F0BD036DC16AC26C013B9142036537
:1089A000F5D0002BF3D1011D0846019100F059FCD0
:1089B000104F114A019950B9E06A14264643BB5939
:1089C0002BB913680125854023EA05031360E36C86
:1089D000E362C3F10500A0611068012404FA03F505
:1089E0000543142000FB0370156000F017FC2046BF
:1089F000CEE700BFBC0F0020301000202DE9F04171
:108A00001F4C1E4680460F46154600F04BF9236862
:108A100093F85830022B14D02268536D23EA0803D0
:108A200053652368012183F8581056B13046FFF78B
:108A30004FFC144B4FF080521A60BFF34F8FBFF3BF
:108A40006F8F00F03FF900F02DF915B123685B6DD1
:108A50002B60236893F85830022B01BF2268536DB6
:108A6000BB43536523684FF000020CBF012500256E
:108A700083F8582000F026F92846BDE8F08100BFB1
:108A8000B00F002004ED00E0F7B51D4604460F4688
:108A9000164600F007F90DB1636D2B6094F858503D
:108AA0000223721EEDB284F85830032A0AD8DFE898
:108AB00002F002060411616D0F43676502E0636D09
:108AC00001336365012D09D0012500F0FBF828462C
:108AD00003B0F0BD022DF0D10025F6E7211D0846B8
:108AE000019100F0BEFB0E48E26A0668019905FAA2
:108AF00002F3334303600B4B142000FB023000F001
:108B00008DFB094BE26A1B68DB6A9A42DCD9074B92
:108B10004FF080521A60BFF34F8FBFF36F8FD4E7CF
:108B200030100020BC0F0020B00F002004ED00E04A
:108B3000F7B5089E0446EFF311874FF0A00080F3CD
:108B40001188BFF36F8FBFF34F8F0BB1606D18604B
:108B500094F858500223013AEDB284F85830032AB1
:108B60000AD8DFE802F002060410636D194361655C
:108B700002E0636D01336365012D08D0012087F3A6
:108B8000118803B0F0BD022DF1D10020F7E7124BA0
:108B90001B68EBB9211D0846019100F062FB0F4AEA
:108BA000E36A106801999D40054315600C4A142042
:108BB00000FB032000F032FB0A4BE26A1B68DB6A11
:108BC0009A42DBD9012306B13360074A1360D5E727
:108BD000064804F11801EDE72810002030100020AD
:108BE000BC0F0020B00F002098100020681000205B
:108BF00082B0002301934FF0A00383F31188BFF3E9
:108C00006F8FBFF34F8F019B002BFCD002B07047DA
:108C100008480068006880F308884FF0000080F37F
:108C2000148862B661B6BFF34F8FBFF36F8F00DF5A
:108C300000BF000008ED00E0DFF80C00016841F41F
:108C4000700101607047000088ED00E04FF0807314
:108C500040F8043C074B40F80C3C21F001016FF058
:108C6000020340F8081C40F8202C40F8243C44380B
:108C7000704700BFF18B00100000000000000000F2
:108C8000074B19680868B0E8F04F80F30988BFF314
:108C90006F8F4FF0000080F311887047AFF30080B2
:108CA000B00F00204FF0A00383F31188BFF36F8F44
:108CB000BFF34F8F024A136801331360704700BF40
:108CC00098000020034A1368013B13600BB983F33B
:108CD000118870479800002000000000000000008C
:108CE000EFF30980BFF36F8F154B1A681EF0100F5A
:108CF00008BF20ED108A20E9F04F10602DE909002F
:108D00004FF0A00080F31188BFF34F8FBFF36F8F38
:108D1000FFF764FD4FF0000080F3118809BC19686B
:108D20000868B0E8F04F1EF0100F08BFB0EC108AD2
:108D300080F30988BFF36F8F704700BFAFF30080E7
:108D4000B00F002008B54FF0A00383F31188BFF3E4
:108D50006F8FBFF34F8FFFF723FC18B1034B4FF01A
:108D600080521A60002383F3118808BD04ED00E0EF
:108D7000054B064900221A600A60054A4EF65F213B
:108D8000116007221A60704710E000E018E000E070
:108D900014E000E00E4B1A6842F4600210B51A604D
:108DA0001A6842F060421A60FFF7E2FF094B0024A4
:108DB0001C60FFF741FF084A136843F0404313600B
:108DC000FFF726FFFFF70AFDFFF712FF204610BD51
:108DD00020ED00E09800002034EF00E070B504467C
:108DE000FFF7D0FB2448016871B9244B244A23F0D3
:108DF0000703C2E90031234A4FF6F875C2E90015AE
:108E0000C3E90025012303602CB1083463071CBFAC
:108E100024F007040834621E4FF6F6739A4229D8EC
:108E2000174A13685968A14201D21868F8B9154861
:108E300083421FD01868156810600A1B102A05F1BC
:108E400008050BD919194A605C604C680C4A104639
:108E500012685668A642FAD30A6001600A495B6844
:108E60000A68D21A0A60FFF727FC284670BD1A4626
:108E70000346D7E70025F6E7A4100120A410002040
:108E8000A81001209C1001209C00002038B5044649
:108E9000B0B1A0F10805FFF775FB54F8041C094BAD
:108EA0001A461B6858688842FAD344F8083C156093
:108EB000054A13680B441360BDE83840FFF7FCBB5C
:108EC00038BD00BFA81001209C000020F8B50D4C53
:108ED000FFF7E8FE25688DB90B4F0C4E384600F0C1
:108EE0008FF9304600F08CF9094B1F60094B2A4678
:108EF0000C2108201E60FFF759F82060BDE8F840FB
:108F0000FFF7E0BEE4100120B8100120CC100120D2
:108F1000B0100120B4100120914208B541600061F9
:108F20000AD8D21A83699A420DD2084B011D1868DB
:108F300000F080F9002008BD9A4201D2994202D285
:108F4000034B011DF3E70120F5E700BFB41001203A
:108F5000B010012007B5FFF7B9FF084B186848B1FA
:108F6000074B019301230093064907480023802201
:108F7000FFF7F4F903B05DF804FB00BFE410012033
:108F8000E8100120650A0110399000107FB50F4CE0
:108F90000546206816461A4680B10529CDE9011616
:108FA00003950DDCFFF7E0FC0023022808BF089AB8
:108FB000206818BF1A4601A9FFF712F804B070BD67
:108FC000002301A9FFF78EF8F8E700BFE4100120A5
:108FD000F0B5174D85B000272B681A682AB9154AD5
:108FE00011682960136005B0F0BDDB68DC681E689D
:108FF000211D0846039100F034F9236A2046984762
:1090000094F82830039913F0040FE5D0A369334492
:109010009E4205D228686360246100F00BF9DBE70B
:1090200000230097324619462046FFF7AFFFD3E7EB
:10903000B0100120B41001202DE9F04F6B4E87B025
:10904000B1463368D3F800B0BBF1000F28D0DB681D
:10905000D3F800B00024664D664FFFF793FAFFF790
:1090600099FA2B6898428246A8461BD3286014B30D
:10907000614B1B681C68B4FA84F4640938682246A2
:10908000ABEB0A01FFF7DAF8FFF716FB80B95B4A92
:109090004FF080531360BFF34F8FBFF36F8F07E024
:1090A0000124D8E7FFF794FFC5F800A0FFF704FB01
:1090B0004FF0000B45E08345E0D8FFF7FDFAD9F803
:1090C0000030DB68DD68281D00F0CBF895F828300B
:1090D000580712D5A9695B46524659442846FFF7FE
:1090E0001BFF30B1009423465A4621462846FFF71D
:1090F0004DFF2B6A28469847DAE723F0010385F8ED
:109100002830F6E794F82830A16943F0010384F889
:109110002830049B2A4619442046FFF7FDFE80B103
:10912000236A2046984794F82830590709D5A26940
:109130000499CDF800B000230A4420461946FFF7F1
:1091400025FF3868002203A9FFF700F800283FF444
:1091500078AF039B002BF4DB059C636913B1201DE2
:1091600000F07FF8FFF716FAD8F80030984205466D
:1091700001D2FFF72DFF039BC8F80050092BE0D860
:1091800001A252F823F000BF0591001005910010D4
:1091900005910010B1910010BF910010DD910010F9
:1091A0000591001005910010B1910010BF910010C1
:1091B00094F8283023F0010384F82830C1E794F8AC
:1091C00028300499A16143F0010384F828302A462D
:1091D0002B4629442046FFF79FFEB2E794F828303B
:1091E0009A07E7D42046FFF751FEAAE7B010012006
:1091F000E0100120E4100120B410012004ED00E093
:1092000000F108034FF0FF32C0E90223436003611D
:1092100000230360704700230361704743684B607D
:109220009A688A609A68516099600368086101339E
:109230000360704730B50C68631C0AD103695A6833
:109240004A6091608B605960036808610133036074
:1092500030BD00F10802134652681568A542FAD9DC
:10926000EDE7D0E9011203698A60516059688142D3
:1092700008BF5A60002202611A68013A1A60186831
:109280007047000014230380034A962383704FF035
:10929000FF33C0E901237047E803F401104AB2F834
:1092A00084309BB213B10023A2F884300D4B4FF4ED
:1092B0008072C3F884214FF48062C3F884214FF494
:1092C0000062C3F884214FF48052C3F884214FF424
:1092D0000052C3F884214FF48042C3F884217047C0
:1092E0000010054000E100E0F8B5002000F02DF985
:1092F0003224013C0CD1134F134D3E6F2B68F31AEF
:10930000072B07D82E600020BDE8F84000F024B9F4
:1093100000BFEEE7012000F01FF90C4B4FF4804234
:109320005A600B4B2E604FF6FF72A3F86E2083F845
:109330007040084B386F58601B68002BE3D098478B
:10934000E1E700BF001005402C11012000E100E022
:1093500000200540EC10012008B5002000F0F5F8D1
:10936000022000F0F9F83223013B14D10B4A4FF6EA
:10937000FF71A2F86E1082F87030094B586F094BDC
:10938000D8609B6803B19847FFF788FF1420BDE8B9
:10939000084000F0E1B800BFE6E700BF002005404C
:1093A00000100540EC10012008B5002000F0CDF8B9
:1093B000002000F0CAF83223013B0ED1084B986F11
:1093C000084B58611B6903B19847002000F0C4F8AE
:1093D0000020BDE8084000F0BFB800BFECE700BFC8
:1093E00000100540EC10012008B5082000F0ADF891
:1093F000022000F0B1F83223013B14D10B4A4FF6A2
:10940000FF71A2F86E1082F87030094BD86F094BCB
:10941000D8619B6903B19847FFF740FF0820BDE87A
:10942000084000F099B800BFE6E700BF0020054003
:1094300000100540EC10012008B5002000F085F870
:109440003223013B0CD1074BD3F88000064B586206
:109450001B6A03B198470020BDE8084000F07CB8C3
:1094600000BFEEE700100540EC10012008B5002019
:1094700000F06BF83223013B0BD1074B186D074B03
:10948000D8629B6A03B198470020BDE8084000F00D
:1094900063B800BFEFE700BF00100540EC100120EB
:1094A00008B5002000F051F8002000F04EF83223FB
:1094B000013B0ED1084B186D084B58631B6B03B171
:1094C0009847002000F048F80020BDE8084000F070
:1094D00043B800BFECE700BF00100540EC100120CE
:1094E00008B5002000F031F83223013B0BD1074BC7
:1094F000186D074BD8639B6B03B198470020BDE8FC
:10950000084000F029B800BFEFE700BF0010054099
:10951000EC100120002008B500F017F832200138C7
:109520000AD1064B4FF48042C3F88421C3F884204B
:10953000BDE8084000F010B800BFF0E700E100E02F
:109540007047704770477047704720B160F07F00E8
:10955000C0B2FCF711B9704720B160F07F00C0B213
:10956000FCF72AB970470000002301461A46184646
:1095700002F038B80A22002100F0F8BC0A230022C9
:1095800000F0E6BC014B1868704700BFA000002047
:1095900038B50A4C0A4D641BA4100AD004F180436C
:1095A000013B05EB8305013C55F804399847002C35
:1095B000F9D1BDE8384007F02BBC00BF580A0020A5
:1095C000540A002070B50D4E0D4D761BB61006D016
:1095D0000024013455F8043B9847A642F9D1094EBE
:1095E000094D761B07F00EFCB61006D0002401349E
:1095F00055F8043B9847A642F9D170BD4C0A0020AB
:109600004C0A0020540A00204C0A0020844641EAFB
:10961000000313F003036DD1403A41D351F8043BEA
:1096200040F8043B51F8043B40F8043B51F8043B3C
:1096300040F8043B51F8043B40F8043B51F8043B2C
:1096400040F8043B51F8043B40F8043B51F8043B1C
:1096500040F8043B51F8043B40F8043B51F8043B0C
:1096600040F8043B51F8043B40F8043B51F8043BFC
:1096700040F8043B51F8043B40F8043B51F8043BEC
:1096800040F8043B51F8043B40F8043B51F8043BDC
:1096900040F8043B51F8043B40F8043B403ABDD24B
:1096A000303211D351F8043B40F8043B51F8043BED
:1096B00040F8043B51F8043B40F8043B51F8043BAC
:1096C00040F8043B103AEDD20C3205D351F8043B7C
:1096D00040F8043B043AF9D2043208D0D2071CBF48
:1096E00011F8013B00F8013B01D30B880380604671
:1096F000704700BF082A13D38B078DD010F00303E7
:109700008AD0C3F10403D21ADB071CBF11F8013B56
:1097100000F8013B80D331F8023B20F8023B7BE7A5
:10972000043AD9D3013A11F8013B00F8013BF9D2D0
:109730000B7803704B7843708B788370604670476A
:109740008842F0B40DD98B1883420AD9841832B1FB
:10975000224613F8014D02F8014D9942F9D1F0BCAF
:1097600070470F2A0ED80346541E002AF7D0013442
:109770000C44013B11F8012B03F8012FA142F9D150
:10978000F0BC704740EA01039B073BD1A2F11007F0
:109790003F0901F1200606EB071601F1100300F165
:1097A000100453F8105C44F8105C53F80C5C44F857
:1097B0000C5C53F8085C44F8085C53F8045C44F80B
:1097C000045C1033B34204F11004EAD17B1C1B018A
:1097D00012F00C0F194402F00F05034415D0043D9C
:1097E000AD0803EB850C1C1F0E4656F8047B44F8AD
:1097F000047F6445F9D10135AD002B44294402F0C2
:109800000302B1E7541E0346B1E72A46ACE700BFA6
:10981000F0B4860746D0541E002A3CD0CAB2034694
:1098200002E014F1FF3436D303F8012B9D07F8D181
:10983000032C29D9CDB245EA05250F2C45EA05456B
:1098400033D9A4F11006360903F1200707EB0617F8
:1098500003F1100242E9045542E902551032BA42BE
:10986000F8D1721C14F00C0F03EB021204F00F0677
:1098700013D0331F23F003030433134442F8045B73
:109880009342FBD106F003042CB1C9B21C4403F887
:10989000011B9C42FBD1F0BC704734461346002CA0
:1098A000F3D1F8E714460346C2E71A462646E0E736
:1098B0000EB400B582B003AB816853F8042B01935A
:1098C00000F062FB02B05DF804EB03B0704700BF2C
:1098D0000FB400B5074983B004AB086853F8042BF4
:1098E0008168019300F050FB03B05DF804EB04B015
:1098F000704700BFA000002070B5054688B008463C
:109900000C4600F01DFA154AAB6B04940126441C6A
:1099100004A90692022203940590AC680796CDE94B
:109920000112B3B1B4F90C309A0406D4626E43F458
:10993000005322F40052A38162662146284601AA00
:1099400003F092F9002814BF4FF0FF300A2008B04E
:1099500070BD284603F01EF8E4E700BF740A01104A
:10996000024B01461868FFF7C7BF00BFA0000020E8
:1099700000000000000000000000000000000000E7
:10998000A2EB0300704700BF02780B78012A28BFC2
:109990009A42F5D16DE9044540EA0104CDE9026738
:1099A0006FF0000C4FEA447212B380EA010414F025
:1099B000070F6AD100F0070420F0070004F0030548
:1099C00021F007014FEAC505F0E8042314F0040F65
:1099D000F1E804670CFA05F462EA040266EA040698
:1099E0000AD063EA0403624667EA0407664603E0B6
:1099F000F0E80423F1E8046782FA4CF582EA0604F1
:109A0000A4FA8CF46CBB83FA4CF583EA0705A5FA3B
:109A10008CF595B950E9022351E9026782FA4CF5B9
:109A200082EA0604A4FA8CF483FA4CF583EA07056B
:109A3000A5FA8CF52543DBD09CB92DBAB5FA85F48F
:109A400024F0070427FA04F1DDE9026723FA04F39E
:109A500003F0FF0001F0FF01FDE80445A0EB010069
:109A6000704724BAB4FA84F424F0070426FA04F107
:109A7000DDE9026722FA04F202F0FF0001F0FF01C3
:109A8000FDE80445A0EB0100704714F0030F3CD142
:109A900010F0030428D150F8082B51F8083B82FA43
:109AA0004CF582EA0305A5FA8CF55DB950F8042C53
:109AB00051F8043C82FA4CF582EA0305A5FA8CF5CC
:109AC000002DE8D02DBAB5FA85F424F0070423FA66
:109AD00004F122FA04F202F0FF0001F0FF01FDE8B8
